{
  "contractName": "BoxV2",
  "abi": [
    {
      "anonymous": false,
      "inputs": [
        {
          "indexed": false,
          "internalType": "uint256",
          "name": "value",
          "type": "uint256"
        }
      ],
      "name": "ValueChanged",
      "type": "event"
    },
    {
      "inputs": [
        {
          "internalType": "uint256",
          "name": "value",
          "type": "uint256"
        }
      ],
      "name": "store",
      "outputs": [],
      "stateMutability": "nonpayable",
      "type": "function"
    },
    {
      "inputs": [],
      "name": "retrieve",
      "outputs": [
        {
          "internalType": "uint256",
          "name": "",
          "type": "uint256"
        }
      ],
      "stateMutability": "view",
      "type": "function",
      "constant": true
    },
    {
      "inputs": [],
      "name": "increment",
      "outputs": [],
      "stateMutability": "nonpayable",
      "type": "function"
    }
  ],
  "bytecode": "0x608060405234801561001057600080fd5b50610268806100206000396000f3fe608060405234801561001057600080fd5b50600436106100415760003560e01c80632e64cec1146100465780636057361d14610064578063d09de08a14610080575b600080fd5b61004e61008a565b60405161005b9190610171565b60405180910390f35b61007e60048036038101906100799190610139565b610093565b005b6100886100d4565b005b60008054905090565b806000819055507f93fe6d397c74fdf1402a8b72e47b68512f0510d7b98a4bc4cbdf6ac7108b3c59816040516100c99190610171565b60405180910390a150565b60016000546100e3919061018c565b6000819055507f93fe6d397c74fdf1402a8b72e47b68512f0510d7b98a4bc4cbdf6ac7108b3c5960005460405161011a9190610171565b60405180910390a1565b6000813590506101338161021b565b92915050565b60006020828403121561014b57600080fd5b600061015984828501610124565b91505092915050565b61016b816101e2565b82525050565b60006020820190506101866000830184610162565b92915050565b6000610197826101e2565b91506101a2836101e2565b9250827fffffffffffffffffffffffffffffffffffffffffffffffffffffffffffffffff038211156101d7576101d66101ec565b5b828201905092915050565b6000819050919050565b7f4e487b7100000000000000000000000000000000000000000000000000000000600052601160045260246000fd5b610224816101e2565b811461022f57600080fd5b5056fea2646970667358221220c70612083ce8b88d1982aaa3ab320143fe942c375b037507f47640913eee9ea064736f6c63430008000033",
  "immutableReferences": {},
  "source": "// SPDX-License-Identifier: MIT\r\npragma solidity ^0.8.0;\r\n\r\n// import './Box.sol';\r\n\r\ncontract BoxV2 {\r\n    uint256 private _value;\r\n\r\n    // Emitted when the stored value changes\r\n    event ValueChanged(uint256 value);\r\n\r\n    // The onlyOwner modifier restricts who can call the store function\r\n    function store(uint256 value) public {\r\n        _value = value;\r\n        emit ValueChanged(value);\r\n    }\r\n\r\n    // Reads the last stored value\r\n    function retrieve() public view returns (uint256) {\r\n        return _value;\r\n    }\r\n\r\n    function increment() public {\r\n        _value = _value + 1;\r\n        emit ValueChanged(_value);\r\n    }\r\n}\r\n",
  "sourcePath": "C:\\Users\\pagta\\Dev Projects\\Block_Chain_Dev\\ethereum-smart-contracts\\contracts\\BoxV2.sol",
  "compiler": {
    "name": "solc",
    "version": "0.8.0+commit.c7dfd78e.Emscripten.clang"
  },
  "schemaVersion": "3.4.7",
  "updatedAt": "2022-05-11T02:11:34.925Z",
  "networkType": "ethereum",
  "devdoc": {
    "kind": "dev",
    "methods": {},
    "version": 1
  },
  "userdoc": {
    "kind": "user",
    "methods": {},
    "version": 1
  }
}